:100B4400073700000000000000073E00000000001E
:100B5400000007450000000000000007220000001C
:100B64000000000002320000014D000121000229B2
:100B7400003CC102072B000000000000000234000A
:010B84000070
:10084D00121127120E62120FC27F007E2012106449
:10085D00EF645A600C1205F37D5A7F007E20121052
:10086D00331209C6121127300208120E62120F1F21
:10087D00C202E521704AFB7A007922120AEC1204B9
:10088D00608F36EF60DEC39430400CE536D394397B
:10089D005005120C2B80CDE536B44105120FF980B1
:1008AD00C3E536B4420512069080B9E536C39461AE
:1008BD0040B2E536D3946350ABAF3612000E80A430
:0508CD00120A33809FB8
:0B110D00EF1FAC0670011E4C70F622B4
:100F8600D3EF9400EE940040147D6E7C00ED1D704E
:0D0F9600011CED4C70F7EF1F70E61E80E3AC
:010FA300222B
:10033C0048656C6C6F210057656C636F6D652100AF
:10034C0057726F6E67210052657374203420746984
:10035C006D657321005265737420332074696D656B
:10036C007321005265737420322074696D6573219A
:10037C00005265737420312074696D6521006261CF
:10038C006B61206F722074686965663F0057616904
:10039C0074696E672031206D696E2100526573742B
:1003AC0061727421004E6576657220616761696EB9
:1003BC002062616B61004E6565643A004F4B20749E
:1003CC006F206368616E67653A0053746F702063C9
:1003DC0068616E67653A0053756363657373206378
:1003EC0068616E67653A0057726F6E67A3BA005208
:1003FC00657374617274206368616E6765A3BA007B
:10040C005573657230005573657230207365637275
:10041C006574005573657230207365637265740082
:10042C00557365723020736563726574005573651E
:10043C007230207365637265740055736572302079
:10044C0073656372657400557365723020736563F0
:04045C007265740051
:100FDE00C2A6C2A5C2A78F807F017E00120F86D245
:0B0FEE00A77F017E00120F86C2A72221
:0A0EFA00AB68AA69A96A1202BCFFE6
:100F0400D2A6C2A5C2A78F807F017E00120F86D20F
:0B0F1400A77F017E00120F86C2A722FB
:051118007F01020FDE63
:1010BA007F38120FDE7F0C120FDE7F06120FDE0260
:0210CA001118FB
:05111D007F08020FDE57
:051122007F0C020FDE4E
:06054B007BFF7D01E4FFCF
:080551008F678B688A69896AD3
:10055900E4F56BEDFF7E00D3940174809480400331
:100569000205F2E567940F74809480507CC3EF9480
:1005790001748094805039AB68AA69A96A1202BCD7
:100589006067C374109567FFE56BC39FE56B500601
:10059900248025678004256724B0FF120FDE120E20
:1005A900FA7401256AF56AE43569F569056B80C74E
:1005B900AB68AA69A96A1202BC602EC37410956758
:1005C900FFE56BC39FE56B500624C02567800425B2
:1005D900672470FF120FDE120EFA7401256AF56A9C
:0905E900E43569F569056B80C772
:0105F20022E6
:100FC2001210BA7BFF7A03793CE4FDFF1205517FD0
:0C0FD200DC7E05120F8612111802111DA2
:040CB5008E518F527B
:100CB90078537C007D007BFF7A04790C7E007F06E7
:100CC900120296E5522430F5571211227B007A0060
:100CD9007953E4FDFF1205517A03794312054B7FDD
:0C0CE900DC7E05120F8612111802111D8E
:100B93001211227BFF7A03794CE4FDFF120551E524
:100BA3004D24FE601214601714601C240370217B13
:100BB300FF7A03795380167BFF7A037961800E7B7A
:100BC300FF7A03796F80067BFF7A03797D12054DE7
:0D0BD3007FDC7E05120F8612111802111D25
:100F44001211227BFF7A03798AE4FDFF1205517A9C
:100F540003799912054B7FDC7E05120F8612111856
:030F640002111D5A
:100F1F001211227BFF7A0379A8E4FDFF1205517BA2
:100F2F00FF7A0379B112054D7FDC7E05120F861211
:050F3F00111802111D54
:020CF5008F521C
:100CF70078537C007D007BFF7A0479127E007F0D9C
:100D0700120296E55224D0F5571211227BFF7A037F
:100D170079C2E4FDFF1205517B007A007953120571
:0E0D27004D7FDC7E05120F8612111802111D81
:020D35008F52DB
:100D370078537C007D007BFF7A04791F7E007F0D4E
:100D4700120296E55224D0F5571211227BFF7A033F
:100D570079C8E4FDFF1205517B007A00795312052B
:0E0D67004D7FDC7E05120F8612111802111D41
:020D75008F529B
:100D770078537C007D007BFF7A04792C7E007F0D01
:100D8700120296E55224D0F5571211227BFF7A03FF
:100D970079D6E4FDFF1205517B007A0079531205DD
:0E0DA7004D7FDC7E05120F8612111802111D01
:020DB5008F5954
:100DB700785A7C007D007BFF7A0479397E007F0DAD
:100DC700120296E55924D0F55E1211227BFF7A03B1
:100DD70079E3E4FDFF1205517B007A00795A120589
:0E0DE7004D7FDC7E05120F8612111802111DC1
:0208D2008F5243
:1008D40078537C007D007BFF7A0479467E007F0D8F
:1008E400120296E55224D0F5571211227BFF7A03A7
:1008F40079F3E4FDFF1205517B007A007953120568
:100904004D7FDC7E05120F86121118E54D24FE6022
:100914001214601714601C240370247BFF7A03797B
:100924005380167BFF7A037961800E7BFF7A03790B
:100934006F80067BFF7A03797DE4FDFF1205517F0A
:0C094400DC7E05120F8612111802111D36
:020DF5008F521B
:100DF70078537C007D007BFF7A0479537E007F0D5A
:100E0700120296E55224D0F5571211227BFF7A037E
:100E170079FBE4FDFF1205517B007A007953120537
:0E0E27004D7FDC7E05120F8612111802111D80
:0D0B85000B083F065B4F666D7D077F6F40DC
:07104A00E4F580AF551555D8
:10105100EF1392A2EFC3131392A3EF1313543F1391
:0310610092A42234
:060AEC008B528A5389546D
:100AF200755506AB52AA53A9541202BC60261210B5
:100B02004AAB52AA53A9541202BC24D8F8E6F58083
:100B12007F017E00120F8674012554F554E435538B
:100B2200F55380CFD3E555940074809480400F1222
:100B3200104A8512807F017E00120F8680E6E4F55E
:010B42008032
:010B4300228F
:100A3300755201852953852A54E55445537011F5A0
:100A4300807F011210518508807E00120F86803A44
:100A5300E55445536034E4F580AF5205521210510A
:100A6300AE53AF547C007D0A1202E774082DF8E6FA
:100A7300F580AE53AF547C007D0A1202E78E538F8C
:0D0A8300547F027E00120F8680C6E4F580CD
:010A90002243
:100C2B00E4FFFEC3E5339406E5329400500D053323
:100C3B00E53370020532142422801FC3EF9405EEB6
:100C4B009400501374232FF8E6FD74222FF8A60599
:100C5B000FBF00010E80E474222FF8A636742225F4
:040C6B0033F8E4F680
:010C6F002262
:100FF900D3E5339400E5329400400FE5331533709F
:0B10090002153274222533F8E4F622B1
:100C7000E4FFFEC3E5359406E5349400500D0535D8
:100C8000E5357002053414242B801FC3EF9405EE64
:100C900094005013742C2FF8E6FD742B2FF8A60542
:100CA0000FBF00010E80E4742B2FF8A64C742B2587
:040CB00035F8E4F639
:010CB400221D
:10101400D3E5359400E5349400400FE5351535707B
:0B102400021534742B2535F8E4F62289
:10046000E4F55275900FAF90EF640F60627F647E89
:100470000012110DAF90EF640F605775900FAF90A1
:10048000EF24F5601024FE6011146013240770122D
:10049000755201800D7552028008755203800375F4
:1004A00052047590F0AF90EF2450600C24E0600C83
:1004B00024F0600C2470800E74048006740880029E
:1004C000740C2552F552AF90EF64F0600580F7E4AC
:1004D000F552E55214B41000506E9004E875F00324
:1004E000A4C58325F0C5837302051802051B020508
:1004F0001E02052102052402052702052A02052DF8
:1005000002053002053302053602053902053C02B8
:10051000053F0205420205457F37227F38227F3999
:10052000227F61227F34227F35227F36227F622222
:100530007F31227F32227F33227F63227F41227FDD
:0A05400030227F42227F25227F0037
:01054A00228E
:100F67008E5B8F5CC2A5E55C155CAE5B7002155BA2
:0F0F77004E600BB2A57F017E00120F8680E8222C
:100E6200755200755303E5531553AE527002155275
:100E72004E60107FC87E00120F677F647E00120FE3
:050E82008680E3D2A50B
:010E87002248
:1010CC007F207E03120F677F647E00120F86D2A5ED
:0110DC0022F1
:100E8800755200755302E5531553AE527002155250
:100E98004E60107FFA7E00120F677F647E00120F8B
:050EA8008680E3D2A5E5
:010EAD002222
:100EAE00755200755304E5531553AE527002155228
:100EBE004E60107FFA7E00120F677F647E00120F65
:050ECE008680E3D2A5BF
:010ED30022FC
:1010DD007FC87E00120F677F327E00120F86D2A569
:0110ED0022E0
:1010EE007F907E01120F677F327E00120F86D2A58F
:0110FE0022CF
:100ED400755900755A05E55A155AAE5970021559D7
:100EE4004E60107F647E00120F677F327E00120F07
:050EF4008680E3D2A599
:010EF90022D6
:03112700C2912250
:08000300D291120F86C2912276
:060A91008B528A538954C8
:100A9700755500755600755722AB52AA53A95412C3
:100AA70002BCFF6026AB55AA56A9571202BC601BB1
:100AB700B5071874012554F554E43553F5537401FB
:100AC7002557F557E43556F55680CEAB52AA53A9AC
:100AD700541202BC700DAB55AA56A9571202BC702E
:040AE70002D322C351
:010AEB0022E8
:10069000054DC3E54D940574809480506F7B007ABE
:1006A000007937120A91500AE4F54D1210CC7F01FF
:1006B00080137B007A00793E120A915016E4F54DC2
:1006C0001210CC7F027E00120CB57FB87E0B120098
:1006D0000380277B007A007945120A915016E4F5D1
:1006E0004D1210CC7F037E00120CB57FB87E0B122A
:1006F00000038006120E88120B93120FF9120FF9E5
:10070000120FF9120FF9120FF9020FF9120EAE12B1
:100710000F44120FF9120FF9120FF9120FF9120FFD
:0B072000F9120FF9120FA4E4F54D22AE
:100E3500EF249E600F1460142402701C7B007A005E
:100E45007937800E7B007A00793E80067B007A0038
:0C0E55007945120A91920122C201A2010B
:010E6100226E
:100BE0008B528A538954AB520554E554AA53700270
:100BF000055314F91202BCFFAB550557E557AA5629
:100C00007002055614F9EF1202D570DAAF581207C8
:100C10002B1210141210141210141210141210149B
:0B0C2000121014120ED4AF58020DB5D4
:10000E008F51121127120FF9120FF9120FF9120F49
:10001E00F9120FF9120FF91210DDAF51120CF51281
:10002E001127300208120E62120F1FC202E5216064
:10003E0003020102FB7A007922120AEC1204608F8D
:10004E0036EF60DBC39430400CE536D3943950055F
:10005E00120C2B80CAE536B441028049E536644263
:02006E00706AB6
:10007000AF51120E359200300015120FF9120FF920
:10008000120FF9120FF9120FF9120FF902011B05E5
:100090004DC3E54D940574809480501D120E88AFB9
:1000A000511208D2120FF9120FF9120FF9120FF9AB
:1000B000120FF9120FF902002D120EAE120F441298
:1000C0000FF9120FF9120FF9120FF9120FF9120F9F
:0700D000F9120FA4E4F54D45
:1000D70002002DE536C39461500302002DE536D3A7
:1000E7009463400302002D120FF9120FF9120FF952
:1000F700120FF9120FF9120FF98073200206120A74
:100107003302002D121127120E62AF51120DF5C2E4
:100117000202002D1211271210EEAF51120D3512E7
:1001270011277B007A00792B120AEC1204608F4C9E
:10013700EF60ECC39430400CE54CD3943950051272
:100147000C7080DBE54CB4410512101480D1E54CEE
:10015700C394614021E54CD39463501A12101412D2
:10016700101412101412101412101412101412106A
:10017700DDAF51020D75E54CB425A4D3E5359400E8
:10018700E53494004099E551249E601214601A24C6
:1001970002708C7555007556007557378014755564
:1001A7000075560075573E800975550075560075E0
:0F01B70057458551587B007A00792B120BE022B7
:100FA400E4F513F514F515F516D2A175A882758923
:0E0FB40002758810758A48758C4875210122D7
:10107B00C2A1E4F58CF58AF588F589F5A8F52975F3
:05108B002A3CF52122C2
:03000B0002095097
:10095000C0E0C0F0C083C082C0D075D000C000C06D
:1009600001C002C003C004C005C006C007E52A4597
:1009700029700A120A3312107BD202802E0514E568
:10098000147002051364FA45137020F513F514056D
:1009900016E5167002051564144515700EF515F56B
:1009A00016B2A1E52A152A70021529D007D006D063
:1009B00005D004D003D002D001D000D0D0D082D056
:0609C00083D0F0D0E0320C
:1010A500313134353134003139313938310031326B
:0510B500333435360064
:0E10FF00E4F5E7F5E5F5E675E3FF75E4FF229D
:1010640075E78175E5018FE48EE375E64675E6B9AB
:071074000000AFE20210FFD3
:04102F002BF8E6FDB7
:1010330075E78175E5028FE48EE38DE275E646750B
:07104300E6B900000210FFF6
:1010900075E78175E5038FE48EE375E64675E6B97D
:0510A00000000210FF3A
:1009C6007D007C22E4FBFA0DEDAE0470010C14FFF1
:1009D60012106474372BF8A6070BBB00010AEB64F0
:1009E600074A70E37C247D00E4FAFB0DEDAE04704B
:1009F600010C14FF121064743E2BF8A6070BBB0003
:100A0600010AEB64074A70E37C267D00E4FAFB0DDD
:100A1600EDAE0470010C14FF12106474452BF8A699
:0C0A2600070BBB00010AEB64074A70E3F9
:010A320022A1
:10072B00EF249E6037146061240260030207C07FD0
:10073B00007E22121090755922755A00E4FAFB05BF
:10074B005AE55AAE597002055914FF743712102F1F
:10075B000BBB00010AEB64074A70E4227F007E2486
:10076B00121090755924755A00E4FAFB055AE55A94
:10077B00AE597002055914FF743E12102F0BBB00BB
:10078B00010AEB64074A70E4227F007E2612109068
:10079B00755926755A00E4FAFB055AE55AAE59709D
:1007AB0002055914FF744512102F0BBB00010AEB05
:0507BB0064074A70E430
:0107C0002216
:1005F30078517C007D007BFF7A1079A57E007F0710
:1006030012029678587C007D007BFF7A1079AC7ECD
:10061300007F07120296785F7C007D007BFF7A10D3
:1006230079B37E007F071202967F007E221210901C
:10063300E4FBFAE42BFFEA3422FE745112102F0B71
:10064300BB00010AEB64074A70E97F007E241210A5
:1006530090E4FAFBE42BFFEA3424FE745812102FC3
:100663000BBB00010AEB64074A70E97F007E261288
:100673001090E4FAFBE42BFFEA3426FE745F1210B9
:0C0683002F0BBB00010AEB64074A70E972
:01068F002248
:030000000207C133
:0C07C100787FE4F6D8FD75816B02080813
:1007CD0002084DE493A3F8E493A34003F68001F2ED
:1007DD0008DFF48029E493A3F85407240CC8C3332D
:1007ED00C4540F4420C8834004F456800146F6DFFC
:1007FD00E4800B0102040810204080900B44E47E3D
:10080D00019360BCA3FF543F30E509541FFEE493F0
:10081D00A360010ECF54C025E060A840B8E493A3B7
:10082D00FAE493A3F8E493A3C8C582C8CAC583CAE2
:10083D00F0A3C8C582C8CAC583CADFE9DEE780BE9A
:010B92000062
:1001C600E709F608DFFA8046E709F208DFFA803E1B
:1001D60088828C83E709F0A3DFFA8032E309F60808
:1001E600DFFA8078E309F208DFFA807088828C8370
:1001F600E309F0A3DFFA806489828A83E0A3F60824
:10020600DFFA805889828A83E0A3F208DFFA804CFD
:1002160080D280FA80C680D4806980F280338010D4
:1002260080A680EA809A80A880DA80E280CA80333D
:1002360089828A83ECFAE493A3C8C582C8CCC583B5
:10024600CCF0A3C8C582C8CCC583CCDFE9DEE78085
:100256000D89828A83E493A3F608DFF9ECFAA9F004
:10026600EDFB2289828A83ECFAE0A3C8C582C8CC5A
:10027600C583CCF0A3C8C582C8CCC583CCDFEADE73
:10028600E880DB89828A83E493A3F208DFF980CCD5
:1002960088F0EF60010E4E60C388F0ED2402B404CE
:1002A6000050B9F582EB2402B4040050AF23234575
:0602B60082239002167382
:1002BC00BB010689828A83E0225002E722BBFE0240
:0902CC00E32289828A83E4932273
:1002D500BB010689828A83F0225002F722BBFE0108
:0202E500F32202
:1002E700BC000BBE0029EF8DF084FFADF022E4CCFB
:1002F700F875F008EF2FFFEE33FEEC33FCEE9DECC4
:10030700984005FCEE9DFE0FD5F0E9E4CEFD22ED09
:10031700F8F5F0EE8420D21CFEADF075F008EF2F53
:10032700FFED33FD4007985006D5F0F222C398FD44
:050337000FD5F0EA22E1
:00000001FF
